:020000040800F2
:1000000090270020E106000879400008B937000871
:10001000353C0008411200083B6900080000000060
:100020000000000000000000000000001561000852
:10003000A712000800000000695C00088D64000839
:10004000FB060008FB060008FB060008095E000826
:10005000FB060008FB060008FB060008FB0600087C
:10006000FB060008FB060008FB0600084512000816
:10007000FB060008FB060008FB060008FB0600085C
:10008000FB060008FB060008FB060008FB0600084C
:10009000FB060008FB060008FB060008FB0600083C
:1000A000FB060008FB060008FB060008FB0600082C
:1000B00061650008FB060008F5650008FB060008FE
:1000C000FB060008FB060008FB060008FB0600080C
:1000D000FB060008FB060008FB060008FB060008FC
:1000E000FB060008FB060008FB060008DFF80CD042
:1000F00000F04EFF00480047D5750008902700200B
:100100002DE9F04F4FF0000C4FF0000301EB1C6E97
:10011000BEF90250BEF900400EF5807EBEF9029095
:10012000BEF900800EF5807EBEF90270BEF9006057
:100130000EF5807EBEF902B0BEF900A00EF5807EFD
:10014000D044D944A8EB4A0AA9EB4B0B4FEAA404CC
:100150004FEAA50504EBA60405EBA705A4EB66068C
:10016000A5EB670704EBA80405EBA905A4EB680859
:10017000A5EB690906EBAB06A7EBAA07A6EB6B0B91
:1001800007EB6A0A458020F8044B478020F8046B8F
:10019000A0F8029020F8048BA0F802A020F804BB7D
:1001A00003F1010393FAA3FC402BAFD1A0EB820132
:1001B0004FF0100312090FF2361000F1000006B4E0
:1001C00003EB430C6144A2F5803202EB8332B1F9B8
:1001D0000250B1F90040A1EB0301B0F902B0B0F94F
:1001E00000A000F10400A5EB040E0EFB0BFC0AEBD3
:1001F0004B0E05FB0ACB04FB0ECAB1F90250B1F954
:100200000040A1EB0301B0F90290B0F9008000F1C9
:100210000400A5EB040E0EFB09FC08EB490E05FBE0
:1002200008C904FB0EC8B1F90250B1F90040A1EBB6
:100230000301B0F90270B0F9006000F10400A5EB11
:10024000040E0EFB07FC06EB470E05FB06C704FB7E
:100250000EC6B1F90250B1F9004001F10001D044DD
:10026000D944A8EB4A0AA9EB4B0B4FEAA4044FEA86
:10027000A50504EB264405EB2745A4EBE636A5EBE4
:10028000E73704EB284405EB2945A4EBE838A5EB58
:10029000E93906EB2B46A7EB2A47A6EBEB3B07EB2E
:1002A000EA3A4D800C8019444F800E801944A1F821
:1002B0000290A1F800801944A1F802A021F804BB23
:1002C000B2F5803283DA03EB430C6144A2F1010200
:1002D0005FEA024E18BFA0EB0C007FF476AF06BCBD
:1002E0004FEA830392087FF46AAFBDE8F08F0040C5
:1002F000000000400000004000005DDD213BA32223
:100300007E180000412D7EA5412D0000412D00C02A
:1003100000405DDD82E75DDD213B7EA5412D004093
:1003200000000040000000400000AA2A94126B392F
:10033000460649327C0CA8118E2349327C0CA3223C
:100340007E1821F77931AA2A9412A8118E235DDD37
:10035000213BA3227E180000412D95C6B13F461ACD
:100360002B1E58EE3735BEB4C53EA8118E235DDD79
:10037000213B63A97138DF089A28B7CDC53E7EA519
:10038000412D0000412D00C0004063A92B1E21F724
:100390007931BEB4C53EBEB47C0C58EE373561AC85
:1003A000213B95C6BAF9BAE571383BA737355DDD13
:1003B00082E75DDD213B7EA5412D21F766D756D52D
:1003C0003F3D3BA78E23A811C9CAB7CDC53E61AC3E
:1003D0007E18AA2AC1C295C6B13FBEB47C0C0040AB
:1003E000000000400000004000001E3BB504693ED4
:1003F0009201C83C2403EB356409C83C24036B39E3
:1004000046066C30060E1E3BB504EB356409AA2A7D
:1004100094126B39460649327C0CAE240917AF376B
:10042000D607882E8D0F7E1E5D1BEB356409AA2A28
:10043000941224188C1F1E34F10AB3269015A811AB
:100440008E2349327C0CA3227E18140B60276C305B
:10045000060E7E1E5D1B7104FB2A882E8D0F461A28
:100460002B1EC7FD5A2E9D2C1211FE15E72021F7D9
:100470007931AA2A9412A8118E2387F05334B22816
:100480001314480D202602EAE536B3269015DF083E
:100490009A289CE32B39AE2409177104FB2A5DDDF1
:1004A000213BA3227E180000412D4ED7C53C93204E
:1004B000EF198FFB6C2F78D1153E7E1E5D1B21F747
:1004C0007931E2CB0F3F641CC61CB8F2683395C685
:1004D000B13F461A2B1E58EE373597C1FB3F241803
:1004E0008C1F02EAE536F0BCEC3FFE15E720BAE5CA
:1004F0007138A6B8853FD5133D2282E1DB39BEB401
:10050000C53EA8118E235DDD213B40B1AF3D790F83
:10051000DA244DD9423C2EAE423C480D202656D519
:100520003F3D8EAB823A140B602778D1153E63A90C
:100530007138DF089A28B7CDC53EB1A71236A90693
:10054000CE2915CA4F3F78A668337104FB2A95C699
:10055000B13FBCA576303902212C38C3EC3F7EA5D3
:10056000412D0000412D00C00040BCA5CE29C7FD93
:100570005A2EF0BCEC3F78A620268FFB6C2F09BAD0
:10058000B13FB1A73D2257F976304DB74F3F63A930
:100590002B1E21F77931BEB4C53E8EABEF19ECF4BA
:1005A00074325EB2153E2EAE9015B8F268332DB09F
:1005B0003F3D40B1121187F053342EAE423CBEB4E1
:1005C0007C0C58EE373561AC213BA6B8D6072BEC36
:1005D0001236C8AADB39F0BC240302EAE53663A967
:1005E000713897C16EFEDCE7B03734A8E53695C6A2
:1005F000BAF9BAE571383BA73735E2CB0FF59CE382
:100600002B3978A6683378D173F082E1DB39EDA518
:1006100079314ED7EDEB6DDF823A99A56C2F5DDD18
:1006200082E75DDD213B7EA5412D9CE33AE352DB71
:10063000B63B99A5FB2A02EA19DF4DD9423CEDA54C
:100640009A2887F026DB4ED7C53C78A6202621F7CE
:1006500066D756D53F3D3BA78E23C7FDDFD363D377
:10066000AF3D34A8E720710494D078D1153E63A93A
:100670002B1E140B8CCD94CF723EC8AA5D1BA81103
:10068000C9CAB7CDC53E61AC7E18241850C8E2CBAC
:100690000F3F2EAE90157E1E25C615CA4F3F2DB0BA
:1006A0009412AE244AC451C8853F5EB28D0FAA2A67
:1006B000C1C295C6B13FBEB47C0C6C308EC1E2C4E1
:1006C000D43F4DB76409EB35B1C038C3EC3F09BA2C
:1006D00046061E3B2CC097C1FB3FF0BC2403000024
:1006E0000648804706480047FEE7FEE7FEE7FEE7CC
:1006F000FEE7FEE7FEE7FEE7FEE7FEE79D64000893
:10070000ED000008202A04DB203A21FA02F0002143
:10071000704721FA02F3D040C2F120029140084311
:1007200019467047D2B201E000F8012B491EFBD2F6
:1007300070470022F6E710B513460A4604461946EC
:10074000FFF7F0FF204610BDF0B480EA0102D40F9D
:100750004200B2EB410F02D20246084611464A005F
:1007600042D0C30DDDB2C1F3C752AD1A202D35DA28
:10077000C1F3160141F4000204B15242C5F1200652
:1007800002FA06F12A411044B3EBD05F23D0C4B182
:10079000012DA0EBC35009DCF0BC4FF0004202EA8F
:1007A000C352DBB200F5000000F077BA400000F160
:1007B000807000EBC350A0F1807040EAD170490016
:1007C00009E0490841EAC071A0EBC35000F5000000
:1007D000400800EBC350F0BC00F056BA6142012261
:1007E00002EB4101001BF6E7F0BC704781F00041CD
:1007F000AAE780F00040A7E780EA010210B502F006
:100800000043400022D04A001FD0010E01EB1261CC
:10081000C0F35600C2F3560240F4000042F4000256
:10082000A0FB022000047F39140400D0401C50EAD1
:10083000124001D44000491EC2B20C0604EBD01095
:10084000401C4008802A02D003E0002010BD20F0A8
:100850000100002900DA0020184310BD420005D035
:10086000C0F3C7525242914201DC0020704700EBB6
:10087000C15070472DE9FE4F804681EA0300C00F4A
:100880000C46009021F0004123F00045B8EB020037
:10089000A94105D24046214690461C460B460246D9
:1008A00023F00040104347D0270DC7F30A00C3F3DD
:1008B0000A510290401A019040286BDAC3F31300EA
:1008C00040F4801B0098924620B10023D2EB030A2B
:1008D00063EB0B0B01985946C0F14002504600F003
:1008E000B2F906460D4650465946019A00F0BAF94B
:1008F00010EB08006141002487EA115284EAE77393
:100900001A4340D0009A62B3019A012A4FEA075273
:1009100015DC001B61EB02014FF0004202EA0752B6
:10092000CDE90042001C41F5801132462B4600F013
:10093000F1F903B0BDE8F08F40462146F9E7001B0E
:1009400061EB0201001C41F5801300185B41201887
:10095000A2F5001747EB030140EAD570B6196D41C7
:1009600011E06D084FEA360645EAC0754FEA0752B6
:10097000001B61EB0201001C41F5801149084FEAA0
:1009800030000019514132462B4603B0BDE8F04F0C
:1009900000F0B1B90098012240000023D0EB020220
:1009A00063EBE073009821464FEAE074B8EB000077
:1009B00061EB0401E9E783F000435BE781F000416C
:1009C00058E72DE9FE4F81EA030404F0004421F0CA
:1009D000004100944FF0000B23F0004350EA010463
:1009E0005ED052EA03045BD0C3F30A54C1F30A5544
:1009F0002C44A4F2F3340194A0FB0254C1F313017C
:100A000041F48011C3F3130343F4801301FB024448
:100A100000FB034E840A970A44EA815447EA83574D
:100A2000A4FB076802958D0A05FB07854FEA932C06
:100A300004FB0C542705029D4FEA065847EA163777
:100A4000B5EB08056EEB070C870E920E47EA81178F
:100A500042EA8312A7FB0201B6EB0B0164EB000430
:100A60002B0D43EA0C335E1844EB1C50DA4651461A
:100A7000E7FB0201C5F313044FEA0B3343EA1453B7
:100A80004FEA0432019C43EA0603A4F10C040294E9
:100A9000009CCDE900B400F03DF903B0BDE8F08F53
:100AA00000200146F9E770B521F0004303430CD064
:100AB000C1F30A550024D5EB040564EB0403D617F3
:100AC000AD1AB34102DB0020014670BD201841EB96
:100AD000025170BDC10F80EAE0700844CA07962336
:100AE000002100F0DAB80EB540F233410291002146
:100AF000CDE900110A460B4600F00CF903B000BD29
:100B000000F0004220F00040C10DC0F3160040F498
:100B100000007F2901DA00207047962903DCC1F12B
:100B20009601C84001E096398840002AF4D040423E
:100B3000704720F00040C10DC0F3160040F40000E3
:100B40007F2901DA00207047962903DCC1F1960164
:100B5000C840704796398840704700F0004230F036
:100B600000400AD0C10D01F56071C0F3160042EAE1
:100B70000151C208400711437047002001467047E9
:100B800001F0004330B421F0004150EA010206D0E8
:100B90000A0DA2F56072C1F31301002A02DC30BC19
:100BA00000207047440F44EAC104C100E01830BC83
:100BB00000EBC25000F068B830B50B46014600208B
:100BC0002022012409E021FA02F59D4205D303FA0F
:100BD00002F5491B04FA02F52844151EA2F1010290
:100BE000F1DC30BD2DE9F05F0546002092469B46C2
:100BF00088460646814640241BE028464146474633
:100C00002246FFF77FFD53465A46C01A914110D342
:100C100011461846224600F016F82D1A67EB010817
:100C20004F4622460120002100F00DF817EB000985
:100C30004E41201EA4F10104DFDC484631462A461D
:100C40004346BDE8F09F202A04DB203A00FA02F177
:100C5000002070479140C2F1200320FA03F31943AA
:100C600090407047202A06DBCB17203A41FA02F069
:100C700043EAE07306E041FA02F3D040C2F12002F9
:100C800091400843194670470029A8BF7047401C8F
:100C9000490008BF20F00100704710B4B0FA80FC92
:100CA00000FA0CF050EA010404BF10BC704749B1CF
:100CB000CCF1200421FA04F411FA0CF118BF01213F
:100CC00021430843A3EB0C01CB1D4FEA00614FEA1F
:100CD000102042BF002010BC704700EBC3501044EE
:100CE0000029A4BF10BC7047401C490008BF20F079
:100CF000010010BC704710B5141E73F1000408DA2F
:100D0000401C41F1000192185B411A4301D120F0CF
:100D1000010010BD2DE9F04D92469B4611B1B1FA8C
:100D200081F202E0B0FA80F220329046FFF78BFFAA
:100D300004460F4640EA0A0041EA0B0153465A4670
:100D4000084313D0114653EA010019D0C8F14002FC
:100D50005046FFF7D7FC05460E46504659464246D8
:100D6000FFF771FF084305D0012004E02046394613
:100D7000BDE8F08D0020054346EAE0762C4337437A
:100D80000A986305E40AA0EB08000022FD0A44EA81
:100D900047540A3002D500200146E9E70105101941
:100DA0006941DDE9084500196941BDE8F04DA2E758
:100DB0002DE9F04D81EA030404F0004B21F00045D9
:100DC00014464FF0000A23F0004150EA050220D0FB
:100DD00054EA01021DD0C5F30A570246C5F31303B6
:100DE000C1F31300C1F30A5640F4801543F4801395
:100DF000A7EB0608101BD64608F2FD3873EB05007A
:100E000002D308F1010801E092185B41B8F1000F2C
:100E100003DA00200146BDE8F08D00204FF4801178
:100E2000064684460EE0171B73EB050705D3121B1D
:100E300063EB050306434CEA010C49084FEA300016
:100E400092185B4150EA0107EDD152EA030012D03B
:100E500082EA040083EA0501084305D0101BAB4178
:100E600006D20122002306E000224FF0004302E0F8
:100E70006FF0010253101AEB06004CEB085110EB17
:100E80000A0041EB0B01BDE8F04DFFF734BF2DE93F
:100E9000F04D00231A461B1A8A4103DB002001464D
:100EA000BDE8F08DC1F30A52C1F3130141F480157E
:100EB0004FF0000BD10702D100186D41521E0027E0
:100EC000044640F2FF11384601EB620A3E46804676
:100ED000024600204FF48011FFF714FCC219714143
:100EE000BB1846EB0100B4EB030C75EB000C04D30C
:100EF000E41A65EB000517460E46241908F10100B7
:100F00006D4180463428E3DDF91946EB0600091BE4
:100F1000A84103D24FF0FF32134601E000221346EE
:100F20001BEB070046EB0A51BDE8F04DFFF7E3BEAF
:100F3000C1F30A52C1F3130140F2FF3341F48011AF
:100F40009A4202DA00200146704740F233439A4247
:100F5000A2F2334202DC5242FFF7D4BBFFF773BE6A
:100F600030B5041E71F1000404DB4FF00044404230
:100F700064EB0101141E73F1000405DB1C464FF005
:100F80000043524263EB0403994208BF904230BDD4
:100F9000064C074D06E0E06840F0010394E80700C6
:100FA00098471034AC42F6D3FFF7A4F82C8B000816
:100FB0004C8B000870B58C1810F8015B15F0070316
:100FC00001D110F8013B2A1106D110F8012B03E0E2
:100FD00010F8016B01F8016B5B1EF9D12B0705D4EA
:100FE0000023521E0DD401F8013BFAE710F8013B33
:100FF000CB1A921C03E013F8015B01F8015B521E4F
:10100000F9D5A142D8D3002070BD00003EB51048EC
:1010100000240E498460C4604461016001250561BB
:101020004FF400214460C16100F028FE08B100F0D7
:1010300079FA0220CDE9000569460294044800F0DF
:10104000FDFC002801D000F06DFA3EBD00240140F7
:10105000DC04002070B5044600688168C943C907F4
:101060001CD1816821F00101816001F0ADF90546D4
:101070000FE000BF01F0A8F9401B022809D9A06ABF
:1010800040F01000A062E06A40F00100E062012040
:1010900070BD20688068C043C007EBD0002070BDE1
:1010A00010B50146406A826A12F0500F05D0006AFE
:1010B000026BBDE8104008461047816A41F4007198
:1010C000816201688968C1F3424107290CD1C16876
:1010D00051B9816A21F480718162816AC90403D4A3
:1010E000816A41F00101816200F05CFD10BD10B524
:1010F000406A816A41F040018162C16A41F00401A5
:10110000C16200F0BAFD10BD10B5406A00F0B4FD38
:1011100010BD0000F8B500260446009600688168FE
:10112000C943C90728D0816841F001018160134893
:1011300013490068B0FBF1F000E0401E0090002869
:10114000FBD101F041F9054611E000BF01F03CF987
:10115000401B02280BD9A06A40F01000A062E06A90
:1011600040F00100E06284F824600120F8BD2068AE
:101170008068C043C007E9D10020F8BD30000020DE
:1011800040420F002DE9FF4FA9B099469246DDE994
:1011900036328B460020202601A91C5C0C54401CD2
:1011A000C0B25028F9D300200C18135C401CC0B208
:1011B000884684F850305028F6D328E05FF00005C8
:1011C00005EB85008006040E6D1C05EB850710E01D
:1011D00018F8041008EB0402490808F80410127DFE
:1011E000322041EAC21108F8041006F0C1F8641C6C
:1011F000E4B2B4EB870FEBD3EDB2082DE0D34B464E
:1012000052465946CDF80080299803F039FA761EE7
:10121000F6B2D3D22DB0BDE8F08F00004B1F4FF0D7
:10122000FF320A2B06D228B11E2803D8034B185CC4
:10123000884201D11046704701207047A41A00204F
:10124000FEE70000014800F0B3BE00000C050020DE
:10125000094808B5416941F0010141614069002236
:1012600000F00100009011460B2001F029F9BDE8C3
:1012700008400B2001F018B90010024030B590F87A
:1012800040500124AC40C56B6C60046863604368E7
:10129000102B036803D099600068C26030BD9A606B
:1012A0000068C16030BD7047F0B4174A1748114656
:1012B000167903888D78180ACC78042E10D013493B
:1012C000052E097815D0062E15D0092E1AD1FF202B
:1012D00000EB1320C0B210705170A8420FD004E090
:1012E00010705B1E09E0122200E01322F0BC05F032
:1012F00017B80120ECE710705B1CD9B2ECE7A142F3
:10130000F3D1F0E7F0BC704786040020481C0020B1
:1013100038B50446082203210C2003F041FE224682
:101320000221322003F0B2FE09220321692003F0DA
:1013300037FE09A20721702003F0F8FE0C20009070
:10134000012104EBD47001EB60020B4606217820EA
:1013500004F090FA38BD00002F00000010B5801E88
:10136000092854D2DFE800F00516292B324734361D
:10137000470027A20021302003F008FF26A2022107
:10138000102003F003FF25A20421102003F0FEFE2D
:1013900024A20FE025A20021302003F0F7FE25A2B1
:1013A0000221102003F0F2FE24A20421102003F0F9
:1013B000EDFE23A20621102004E022A200E023A2D9
:1013C00000213020BDE8104003F0E0BE21A2F7E785
:1013D00021A2F5E721A20021302003F0D7FE21A2AF
:1013E0000221102003F0D2FE21A20421102003F0DC
:1013F000CDFE21A2DEE722A20221102003F0C6FECC
:1014000020A20421102003F0C1FE1FA2D2E710BDCC
:101410004D757369630000004D5033004D6F646576
:1014200000000000536F72740000000047616D659A
:1014300000000000536E616B650000002E0000008C
:101440002E2E0000436C6F636B000000416C6172D4
:101450006D0000004C65640053657400496E666F52
:1014600000000000557365723A787878000000003B
:1014700057583A787878000051513A7878780000D7
:1014800030300000303100003032000070B50546C9
:10149000CE0801F0070001248440E0B2102818D0E3
:1014A00008DC01280DD002280DD004280DD0082812
:1014B00016D10CE020280ED040280ED080280FD165
:1014C0000DE001230CE002230AE0042308E00823D6
:1014D00006E0102304E0202302E0402300E0802304
:1014E0000C48C90800EBC114102A02D0112A03D0FD
:1014F00005E0605D184301E0605D9843605531464A
:10150000284604F0ADF8605DBDE87040012104F0AC
:101510003FBB0000901F0020024600216F2003F017
:101520003FBD000001A005F073FAFBE74D63752095
:101530006973204572726F725F48616E646C657288
:1015400021200D0A000000002DE9F047DFF89090FF
:1015500000246FF00E076FF0070A09F5007800BF4E
:1015600059F8241008B20E14FFF7B4FA0821FFF757
:1015700075F93946FFF772F905463046FFF7AAFAC2
:101580000821FFF76BF93946FFF768F90146FFF7C5
:1015900033F9064629460846FFF72EF93146FFF78C
:1015A000D3F8FFF7DAFA06F00BF95246FFF77BFAA9
:1015B000FFF7E6FA64B11021FFF750F9FFF7B9FA27
:1015C00048F82400641CA4B2802CC9D3BDE8F0877D
:1015D0000F21FFF743F9FFF7ACFAC8F80000F1E775
:1015E000241600202DE9F04789060E0E8006000E15
:1015F0003746044611223146FFF748FF651CE8B222
:1016000010223946FFF742FF04F1020808F0FF00FC
:1016100010223946FFF73AFF04F1030909F0FF00F1
:1016200011223946FFF732FF7E1CF1B2102220460C
:10163000FFF72CFFF1B2E8B21022FFF727FFF1B25B
:1016400008F0FF001022FFF721FFF1B209F0FF00C0
:101650001022FFF71BFFBE1CF1B210222046FFF73D
:1016600015FFF1B2E8B21022FFF710FFF1B208F057
:10167000FF001022FFF70AFFF1B209F0FF0010226D
:10168000FFF704FFFE1CF1B211222046FFF7FEFE19
:10169000F1B2E8B21022FFF7F9FEF1B208F0FF0054
:1016A0001022FFF7F3FEF1B209F0FF00BDE8F047AA
:1016B0001122FFF7EBBE10B5002410221146204680
:1016C000FFF7E4FE10223F212046FFF7DFFE641CF7
:1016D000E4B2802CF1D30520401CC0B27D28FBD39E
:1016E0001024102221460220FFF7D0FE10222146AE
:1016F0007F20FFF7CBFE641CE4B2402CF1D3132013
:10170000401CC0B23D28FBD310BD0000174810B5E7
:10171000816986B041F004018161816901F00401B1
:101720000491816941F008018161816901F008013A
:101730000491816941F01001816180690C4C00F0D5
:1017400010000490F82000900120019000200290E9
:10175000022003906946204600F04AFD0122F8214C
:10176000204600F02CFE06B010BD00000010024024
:101770000008014002F062BD03F04CBD2DE9F041CC
:1017800015461E460F460446A84202D9D0B2254649
:10179000044632463946204600F010F9641CA4B2D3
:1017A000A542F6D2BDE8F08103F07CB82DE9FF5FD9
:1017B00005460C4603989346511B021B4FF0FF361B
:1017C000002902DD4FF0010701E005DA3746002A63
:1017D0000BDD4FF0010613E00E9BC2B204B0E1B284
:1017E000A8B2BDE8F05F00F013B909DB0E9B04B0AE
:1017F0001FFA8BF2E1B2A8B2BDE8F05FFFF7BEBFFF
:10180000794372434FEA41094FEA4208914214DB9F
:10181000A8EB010AA8EB09090CE0E1B2A8B20E9A04
:1018200000F0CCF83D44BAF1000F01DAC24401E007
:10183000CA4434445D45F0D114E0A9EB020AA9EB97
:1018400008080CE0E1B2A8B20E9A00F0B7F83444F0
:10185000BAF1000F01DACA4401E0C2443D440398E2
:101860008442EFD10E9A04B0E1B2A8B2BDE8F05FB5
:1018700000F0A4B82DE9FC5F05460C989846914607
:101880000C4600286FD0322800D932204608871B2A
:10189000A9EB05037F1EA8EB04024FF0FF30002BDD
:1018A00002DD4FF0010B01E005DA8346002A12DD6C
:1018B0004FF0010010E0AE1B00D5002605EB070538
:1018C00008F0FF02E1B2B0B20D9B00F0A1F8AE4209
:1018D00072DA761CF4E70BDA82460BFB03F1504315
:1018E0004A00019242000092814239DB501A1FE007
:1018F000A61B00D500263C441FFA89F2F1B2A8B21B
:101900000D9BFFF73BFFA64256DA761CF4E7002852
:1019100000DA0020E119CAB2C1B2A8B20D9B00F0F2
:1019200077F85D44B8F1000F04DA009908EB010084
:10193000804604E0DDE90001411A884454444D45E5
:10194000A4EB0600E3D1002800DA0020E119CAB2B6
:101950000D9BC1B202B0A8B2BDE8F05F00F058B86C
:101960000199081A10E027E0002800DA0020E919A0
:101970008AB2E1B280B20D9BFFF700FF5444B9F187
:10198000000F03DA01984844814604E0DDE90010C5
:10199000411A89445D444445A5EB0600E4D1002882
:1019A00000DA0020E9190D9B8AB202B0E1B2BDE86D
:1019B000F05F80B2FFF7E2BEBDE8FC9FC0B202F06C
:1019C0007FBE00002DE9F8430E00044691461DD06D
:1019D000012E04D114F8010B2178FFF7EFFF14F862
:1019E000010B012714F8011B0EE000BF14F8018B56
:1019F00014F8015B42462B46CDF80090FFF7D6FE67
:101A00007F1C40462946FFB2B742EFD3BDE8F883BA
:101A10002DE9F04115461E4607460C46A94201D95C
:101A20000D461446324621463846FFF7C7FF641C70
:101A3000E4B2A542F6D2BDE8F0810000F8B5002579
:101A4000009590F82420AE46012A1ED0012280F88D
:101A500024204A681F244FF47873072A17D2066897
:101A6000776B93FAA3FCBCFA8CFC521E02FB0CFCB5
:101A700004FA0CF4A74393FAA3F3B3FA83F30C68C4
:101A80005A439440274377632DE00220F8BD06684F
:101A90000D2A14D2376B93FAA3FCBCFA8CFCD21F2C
:101AA00002FB0CFC04FA0CF4A74393FAA3F3B3FA79
:101AB00083F30C685A4394402743376313E0F76A73
:101AC00093FAA3FCBCFA8CFC0D3A02FB0CFC04FA62
:101AD0000CF4A74393FAA3F3B3FA83F30C685A43C5
:101AE00094402743F7620A683823072406680A2AC5
:101AF00014D3F76893FAA3FCBCFA8CFC0A3A02FBF5
:101B00000CFC04FA0CF4A74393FAA3F3B3FA83F39F
:101B10008C685A4394402743F76012E0376993FA80
:101B2000A3FCBCFA8CFC02FB0CFC04FA0CF4A743EB
:101B300093FAA3F3B3FA83F38C685A439440274390
:101B400037610A68102A01D0112A20D1124B02688D
:101B50009A4217D193681B0219D4936843F4000387
:101B600093600968102912D10C490D4A0968B1FB2C
:101B7000F2F101EB8101490000E0491E00910029CA
:101B8000FBD104E0816A41F020018162012580F8E7
:101B900024E02846F8BD0000002401403000002069
:101BA00040420F0070B500242E4800F0C3F92E48C3
:101BB00000F5806130F82420A2F61F42120441F89B
:101BC0002420641CA4B2FF2CF4D928494FF480745B
:101BD000224601F58060FEF793FAFFF7B5FC244832
:101BE000002182781AB10170C178417016E0214A53
:101BF0000123037055884FF49676B54200D9518081
:101C000055886D1CADB25580B54207D951804178D9
:101C1000491CC9B24170072900D943704078072890
:101C200017D2DFE800F01604070A0D10130002F0C7
:101C3000B7F910E002F0AEF80DE002F05BF80AE050
:101C400001F0FAFF07E002F021F904E002F0E0F809
:101C500001E002F057F92246BDE870400249014810
:101C600000F0E2B8DC040020240E00202412002042
:101C70001400002082040020704770472DE9F041D5
:101C800004004FF0000513D0A06A002628B9E662D0
:101C900084F82460204600F08BF82046FFF7DAF93C
:101CA000A16AC90600D420B1A06A40F01000A06269
:101CB00078E0A16A21F4885141F00201A1626268D2
:101CC000E16902270A43E16897FAA7F70B46B7FADA
:101CD00087F7B9400A43A1684FF48077B94209D029
:101CE000012907D05FF00001D4F814C0BCF1010F46
:101CF00002D00AE03946F7E7F3B1A36A43F02003C4
:101D0000A362E36A43F00103E3622368D3F804C0EB
:101D10002CF4694C4CEA010CC3F804C021688B68B0
:101D2000DFF884C003EA0C0313438B60A168B94257
:101D300010D001290ED016E04FF4604CA3699CFA34
:101D4000ACFCBCFA8CFC5B1E03FA0CF30B4343F4B3
:101D50000061DAE74FF47001256991FAA1F1B1FA57
:101D600081F16D1E8D402168CB6A23F470032B43F3
:101D7000CB62216889680D4B1940914208D1E66217
:101D8000A16A21F0020141F00101A162BDE8F081E8
:101D9000A06A20F0020040F01000A062E06A40F06B
:101DA0000100E0620120F1E7FDF7E1FFFE0E1FFFF9
:101DB00030B505460068174985B0884227D11648D6
:101DC000816941F4007181618069694600F40070A5
:101DD00004900420009003200190104800F008FABD
:101DE000104C0F488021206000206060C4E902018F
:101DF00089002161890061612021C4E90610204623
:101E000000F080F908B1FFF78DFB2C62656205B028
:101E100030BD0000002401400010024000080140D5
:101E2000080002400C0500202DE9F04789460446D1
:101E30003B4900683B4F0E1D9046884201D0B84296
:101E400007D1306810F4702F03D001252846BDE873
:101E5000F08794F8240001280CD0012084F8240095
:101E60002046FFF757F905004FF0000004D084F832
:101E70002400EBE70220EAE7A16A40F60162914301
:101E800041F48071A1622168B94218D1326812F41C
:101E9000702F14D0A16A41F48011A1623168490504
:101EA00005D5A16A21F4005141F48051A162A16AD3
:101EB000C9040AD5E16A21F00601E16206E0A26ADE
:101EC00022F48012A2624968E9E7E06284F8240003
:101ED000216A15488862216A1448C862216A144838
:101EE000086321686FF0020008602068816841F48F
:101EF00080718160216843464A464C31206A00F077
:101F000033F920688168C1F342410729816803D011
:101F100041F48011816099E741F4A001FAE70000E3
:101F20000024014000280140A11000080911000808
:101F3000EF10000810B5044690F82400012807D0DF
:101F4000012084F824002046FFF784F810B10EE049
:101F5000022010BD2068816821F480718160206AB0
:101F600000F00EF8A16A30B141F04001A1620021F9
:101F700084F8241010BD21F4885141F00101F5E7E7
:101F800001680A6822F00E020A6001680A6822F0FD
:101F900001020A6090F84020C36B012101FA02F2AD
:101FA0005A6080F82110002180F820100846704700
:101FB0002DE9F05FC16B0C6801680B68D0F840C078
:101FC000042202FA0CF2494DDFF824A1494E4A4F8F
:101FD000DFF828B1DFF828E122422CD05A072AD5B1
:101FE0000A68920603D40A6822F004020A600168B3
:101FF000A94201D1042219E0514501D1402215E046
:10200000B14202D14FF4806210E0B94202D14FF4E4
:1020100080420BE0594502D14FF4802206E0714521
:1020200002D14FF4800201E04FF080622F4908395D
:102030004A60C16A3BE04FF0020808FA0CF818EA5F
:10204000040F4FF000094FF0010235D05FEA8378AA
:1020500032D50B689B0605D40B6823F00A030B608E
:1020600080F821200168A94201D1022219E05145DE
:1020700001D1202215E0B14202D14FF4007210E0EC
:10208000B94202D14FF400520BE0594502D14FF44E
:10209000003206E0714502D14FF4001201E04FF02A
:1020A0000072124908394A6080F82090816A00293C
:1020B0001AD0BDE8F05F0847082505FA0CF525425F
:1020C00012D01B0710D50B6823F00E030B6090F89D
:1020D0004010C36B02FA01F15960826380F821203D
:1020E00080F82090016BE2E7BDE8F09F0800024015
:1020F0001C000240300002404400024058000240F0
:102100006C00024030B548B308C815491422194480
:10211000B1FBF2F18900C163124981630221417769
:102120001A6843F6F0718A43D0E900142143D0E9DC
:1021300002452C43214304692143446921438469B6
:10214000214311431960002141628162C162016330
:102150004163012242770177084630BD012030BD3E
:10216000F8FFFDBF0000024070B5044690F8200063
:10217000002501280CD0012084F8200094F821606B
:102180000020012E06D084F820000225284670BDCC
:10219000022070BD022684F82160A06320680668D2
:1021A00026F0010606602046FFF768F8E06A00287E
:1021B0002068016802D041F00E0106E021F0040120
:1021C00001602068016841F00A010160206801682F
:1021D00041F001010160D9E731B500F0F5F804469E
:1021E00000F0F2F80099001B8842F9D338BD0000D6
:1021F0002DE9F84FDFF890A100220AF1040B1446F4
:1022000001274FF00F090BF1040E00BF0B6807FA0E
:1022100004F52B40AB4274D1DFF870C14E68A6EBD9
:102220000C0866452BD00DDC032E34D005DC36B30C
:10223000012E19D0022E2FD11BE0112E16D0122EF6
:102240002AD119E0B8F5881F19D006DCB8F5803F0F
:1022500015D0B8F5801F1FD111E0B8F5001F0ED0C2
:10226000B8F5041F18D10AE0CA6815E0CA68121D43
:1022700012E0CA6808320FE0CA680C320CE08A68C3
:102280002AB1012A4FF0080203D0456104E004227C
:1022900002E0056100E00022FF2B01D8064601E0C4
:1022A00000F104064FEA840501D9A5F12005D6F80E
:1022B00000C009FA05F82CEA080C02FA05F54CEA08
:1022C000050CC6F800C04D68ED0057D5304DAE691D
:1022D00046F00106AE61AD6924F0030605F0010584
:1022E00000952C4D06EB050CDCF80850A6074FEACC
:1022F000167809FA08F6B543274EB04202D10026F7
:1023000010E03BE0254EB04201D101260AE0244E08
:10231000B04201D1022605E0224EB04201D103268F
:1023200000E0042606FA08F62E43CCF808604D6853
:10233000DAF80060ED03554601D51E4300E09E43E8
:102340002E604D68DBF80060AD035D4601D51E438D
:1023500000E09E432E604D68DEF80060ED02754699
:1023600001D51E4300E09E432E604D68AD020E4D28
:102370002E6801D51E4300E09E432E60641C102C85
:10238000FFF444AFBDE8F88F0004014000001110D5
:10239000001002400000014000080140000C014014
:1023A00000100140001401400C0401408068084006
:1023B00000D001207047C2684A40C26070470AB12D
:1023C000016170470904FBE701480068704700009D
:1023D0003400002002480168491C01607047000079
:1023E00034000020074810B5016841F01001016079
:1023F000032000F085F8002000F006F800F016F841
:10240000002010BD0020024010B5044600F068FA1C
:102410004FF47A71B0FBF1F000F05AFE0022214631
:10242000501E00F04DF8002010BD00001C4808B5FB
:10243000816941F001018161806900F00100009033
:10244000032000F05DF8002211466FF00B0000F051
:1024500037F8002211466FF00A0000F031F8002230
:1024600011466FF0090000F02BF800221146501FB2
:1024700000F026F800221146101F00F021F800227B
:102480001146901E00F01CF800221146501E00F06C
:1024900017F80448416821F0E061416008BD000080
:1024A000001002400000014000F01F020121914095
:1024B0004009800000F1E020C0F8001170470000E2
:1024C000F0B40E4B1B680C46C3F30223C3F107059F
:1024D000042D00D90425191D072901D2002300E08D
:1024E000DB1E012606FA05F1491E214099409E4057
:1024F000761E16403143F0BC01F0BFBD0CED00E08C
:10250000064900F0070208684FF6FF03184040EA4A
:102510000220034A10430860704700000CED00E001
:102520000000FA050120010291FAA1F1024AB1FA74
:1025300081F142F82100704700000E4210B533A42B
:1025400001461DCC86B08DE81D0034A0344C0068D7
:1025500004900020012931D0022948D010292BD124
:1025600061682268D20127D54FF4701292FAA2F264
:1025700001F47010B2FA82F2D040C9031DF80000D5
:1025800010D561684FF4003292FAA2F201F40031E2
:10259000B2FA82F2D14004AA515C224AB2FBF1F1B4
:1025A000484301E0204948436168490204D440009F
:1025B0005FF00301B0FBF1F006B010BD226AC2F378
:1025C0000121012903D1920701D5C803F4E70229AB
:1025D00005D1626A920702D549F64040ECE703292B
:1025E000EAD121688903E7D54FF22440E4E700F0FF
:1025F00095F961684FF4804292FAA2F201F44041E9
:10260000B2FA82F2D140491C4900D3E70203040523
:10261000060708090A0B0C0D0E0F1010010200002E
:102620000010024000127A0000093D002DE9F84335
:1026300005460078454CC00774D0E06940F08050F2
:10264000E061E069424E00F080500090306840F454
:1026500080703060FFF7B8FE074604E0FFF7B4FE75
:10266000C01B642833D83068C005F7D5206A10F441
:10267000407051D0A98801F4407181424CD0206A49
:102680000126310491FAA1F2B2FA82F29300314AA2
:1026900020F440701344C3F8006491FAA1F1B1FA38
:1026A00081F102EB81010023C1F800342062C007F0
:1026B00032D0FFF789FE074641F288394FF0020811
:1026C00008E000BFFFF780FEC11B494502D9032087
:1026D000BDE8F88398FAA8F1B1FA81F141F0400120
:1026E0004046B6EB511F01D121680BE090FAA0F1F2
:1026F000B1FA81F141F04001B0EB511F01D1216AE3
:1027000000E0616A98FAA8F0B0FA80F000F01F02C9
:1027100006FA02F00142D5D0206A696820F44070C0
:10272000084320622878800705D56068A96820F4EE
:102730004040084360602878C00605D56068E968B5
:1027400020F48000084360600020C1E700100240D0
:1027500000700040000042422DE9F047DFF8708130
:1027600005460E46D8F8000000F00700B0420CD233
:10277000D8F8001021F007013143C8F80010D8F84C
:10278000000000F00700B04277D12878514C800754
:1027900005D56068A96820F0F000084360602878DB
:1027A000C00759D06968012001290DD0022929D01C
:1027B0005FF0020393FAA3F2B2FA82F242F020022F
:1027C000520904D0226803E04FF40033F2E7626A52
:1027D00093FAA3F3B3FA83F303F01F039840024282
:1027E0004BD0606820F0030008436060FFF7ECFD09
:1027F0006968074641F2883001290DD002298146D7
:1028000017D025E04FF00073D4E700BFFFF7DCFDE1
:10281000C11B494501D918E081466068C0F38100B9
:102820000128F3D118E000BFFFF7CEFDC11B4945D9
:102830000BD86068C0F381000228F5D10CE000BF1E
:10284000FFF7C2FDC11B494502D90320BDE8F0874F
:10285000606810F00C0FF3D1D8F80010404601F07A
:102860000701B1420BD9016821F007013143016032
:10287000006800F00700B04201D00120E6E72878A8
:10288000400705D56068E96820F4E06008436060AF
:102890002878000706D56068296920F4605040EA6E
:1028A000C100606000F052F86168F02292FAA2F272
:1028B00001F0F001B2FA82F2D140074A515CC840FF
:1028C000064908600020FFF79FFD0020BEE70000DA
:1028D00000200240001002400C7800083000002068
:1028E000014800687047000030000020084809498E
:1028F000006849684FF4E06292FAA2F201F4E061E4
:10290000B2FA82F2D140044A515CC84070470000DC
:1029100030000020001002401C78000808480949D7
:10292000006849684FF4605292FAA2F201F46051D3
:10293000B2FA82F2D140044A515CC84070470000AC
:1029400030000020001002401C78000810B519A3C8
:1029500085B00FCB8DE80F001AA01B4B00680490C8
:102960005A681A4802F00C0104291DD008291BD10D
:102970004FF4701494FAA4F402F47011B4FA84F4CD
:10298000E140D2031DF8011010D55A684FF400330E
:1029900093FAA3F302F40032B3FA83F3DA4004AB00
:1029A0009A5CB0FBF2F0484305B010BD08484843BC
:1029B000FAE7000002030405060708090A0B0C0DDC
:1029C0000E0F1010010200000010024000127A00E9
:1029D00000093D002DE9F84F04460078F74DC00787
:1029E0004FF0010625D068687704C0F38100012804
:1029F00007D06868C0F3810002281BD16868C00353
:102A000018D597FAA7F0B0FA80F040F020004009FE
:102A100001D0286800E0686A97FAA7F1B1FA81F15D
:102A200001F01F0106FA01F108425ED0606800283B
:102A30007CD05AE06068B0F5803F0BD010B1B0F5A3
:102A4000A02F11D0286820F480302860286820F456
:102A5000802002E0286840F480302860606828B355
:102A6000FFF7B2FC80460BE0286840F48020286025
:102A7000F0E700BFFFF7A8FCA0EB0800642871D8BE
:102A800097FAA7F0B0FA80F040F02000400901D09A
:102A9000286800E0686A97FAA7F1B1FA81F101F0BD
:102AA0001F0106FA01F10842E4D01EE0FFF78CFC9A
:102AB000804605E0FFF788FCA0EB08006428DED81C
:102AC00097FAA7F0B0FA80F040F02000400901D05A
:102AD000286800E0686A97FAA7F1B1FA81F101F07D
:102AE0001F0106FA01F10842E4D12078DFF8D08214
:102AF00080074FF000094FF002075BD568684FF080
:102B0000F80B10F00C0F07D06868C0F381000228A2
:102B10001CD16868C00319D497FAA7F0B0FA80F006
:102B200040F02000400902D0286801E08BE0686A8C
:102B300097FAA7F1B1FA81F101F01F0106FA01F14C
:102B400008422CD0206901287DD128E0206990B36B
:102B500096FAA6F0B0FA80F048F82060FFF734FC4F
:102B6000824607E011E100BFFFF72EFCA0EB0A0050
:102B7000022884D897FAA7F0B0FA80F040F020003D
:102B8000400901D0286800E0686A97FAA7F1B1FA15
:102B900081F101F01F0106FA01F10842E4D0286832
:102BA0009BFAABF26169B2FA82F220F0F800914030
:102BB0000843286025E0FFE796FAA6F1B1FA81F113
:102BC00048F82190FFF700FC824605E0FFF7FCFB88
:102BD000A0EB0A000228CCD897FAA7F0B0FA80F050
:102BE00040F02000400901D0286800E0686A97FAA8
:102BF000A7F1B1FA81F101F01F0106FA01F10842D3
:102C0000E4D1207800076ED5A069B8B396FAA6F093
:102C1000B0FA80F008EB8000C0F88064FFF7D4FBC6
:102C2000824605E0FFF7D0FBA0EB0A000228A0D8FF
:102C300097FAA7F0B0FA80F040F06000B6EB501FB2
:102C400002D128680CE062E197FAA7F0B0FA80F0B0
:102C500040F06000B7EB501F01D1286A00E0686ABD
:102C600097FAA7F1B1FA81F101F01F0106FA01F21A
:102C70001042D7D00120FFF7AFFA34E0FFE796FA11
:102C8000A6F1B1FA81F108EB8101C1F88094FFF758
:102C90009BFB824606E000BFFFF796FBA0EB0A0015
:102CA000022872D897FAA7F0B0FA80F040F06000DE
:102CB000B6EB501F01D128680BE097FAA7F0B0FAE5
:102CC00080F040F06000B7EB501F01D1286A00E0AF
:102CD000686A97FAA7F1B1FA81F101F01F0106FACB
:102CE00001F21042D8D12078400765D5E86940F05C
:102CF0008050E861E869DFF8CCB000F080500090C7
:102D0000DBF8001041F48071CBF80010FFF75CFB9A
:102D1000824605E0FFF758FBA0EB0A00642834D890
:102D2000DBF80000C005F5D5E06801280AD008B13D
:102D3000052813D0286A20F001002862286A20F0B4
:102D4000040002E0286A40F001002862E06841F2D5
:102D5000883B90B3FFF738FB82460BE0286A40F0CF
:102D600004002862EEE700BFFFF72EFBA0EB0A018C
:102D700059450AD897FAA7F0B0FA80F040F0400021
:102D8000B6EB501F02D128680CE0A3E097FAA7F039
:102D9000B0FA80F040F04000B7EB501F01D1286A34
:102DA00000E0686A97FAA7F1B1FA81F101F01F0219
:102DB00006FA02F10842D7D031E005E000100240E7
:102DC0000000424200700040FFF7FEFA824605E034
:102DD000FFF7FAFAA0EB0A0159457BD897FAA7F05A
:102DE000B0FA80F040F04000B6EB501F01D12868E7
:102DF0000BE097FAA7F0B0FA80F040F04000B7EB94
:102E0000501F01D1286A00E0686A97FAA7F1B1FA69
:102E100081F101F01F0206FA02F10842D8D1E069FF
:102E200080B36968C1F38101022970D04FF08071CD
:102E30004F000228484609D091FAA1F1B1FA81F178
:102E400048F82100FFF7C0FA044669E08A4691FA83
:102E5000A1F1B1FA81F1C14648F82100FFF7B4FAB7
:102E6000804605E0FFF7B0FAA0EB0800022854D82E
:102E700097FAA7F0B0FA80F040F02000400902D0A5
:102E8000286801E061E0686A97FAA7F1B1FA81F178
:102E900001F01F0106FA01F10842E3D1206AB0F502
:102EA000803F05D16868A16820F40030084368605D
:102EB000D4E908010843696821F474110843686083
:102EC0009AFAAAF0B0FA80F049F82060FFF77CFA8D
:102ED000044606E021E000BFFFF776FA001B022857
:102EE0001BD897FAA7F0B0FA80F040F02000400914
:102EF00001D0286800E0686A97FAA7F1B1FA81F179
:102F000001F01F0106FA01F10842E5D01DE01EE0C4
:102F1000FFF75AFA001B022802D90320BDE8F88FF8
:102F200097FAA7F0B0FA80F040F02000400901D0F5
:102F3000286800E0686A97FAA7F1B1FA81F101F018
:102F40001F0106FA01F10842E2D10020E6E7012064
:102F5000E4E70000024850F8210080B2704700000A
:102F6000006C0040024800EB810091B201607047A4
:102F7000006C004070B5040003D0607C002610B1E6
:102F800005E0012070BD2674204600F043F80220C1
:102F90006074204600F072F8042578BB204602F0E9
:102FA00064FE58BB2068416821F007014160A068B9
:102FB00020B11748016821F0010101601448001F89
:102FC0000168A26821F46071114301606068411CCE
:102FD00004D10120FFF7B2FA80B1401E21688A684F
:102FE00022F00F0242EA10428A602168CA6860F348
:102FF0000F02CA60204602F053FE08B16574C0E7B4
:10300000E67301206073A0736074002070BD00003F
:10301000306C004010B5174C90B0E06940F0805023
:10302000E061E06900F080500E90FFF77BFAE06904
:1030300040F00060E061E069012400F000600E9063
:10304000042000900020079003946846FFF7C2FC1C
:103050002002CDE90A400AA8FFF7E8FAE00390FA57
:10306000A0F00549B0FA80F001EB8000C0F8004400
:1030700010B010BD001002400000424270B50400C4
:103080000AD02068416821F008014160FFF79CF9EF
:1030900005464FF47A7608E0012070BDFFF794F9F9
:1030A000401BB04201D9032070BD20684068000772
:1030B000F4D5002070BD4FF0E0210428086903D04A
:1030C00020F004000861704740F00400FAE7704700
:1030D00010B5401EB0F1807F01D3012010BD4FF02C
:1030E000E02460610F21601700F0C7FF0020A0619D
:1030F00007202061002010BD10B5FFF7E8FF10BDCC
:103100007047704730B590F83820012A20D001224E
:1031100080F83820022380F8393003685C6824F096
:1031200070045C6003685C680D682C435C60036835
:103130009C6824F080049C6003689C6849680C4388
:103140009C6080F83920002180F83810084630BD96
:10315000022030BD10B5040003D094F8390010B13E
:1031600007E0012010BD002084F83800204600F060
:103170000DF8022084F83900211D206803F058FA68
:10318000012084F83900002010BD000038B5054644
:1031900000681B491B4C884207D1E06940F00200DF
:1031A000E061E06900F00200009017492868884259
:1031B0000FD1E06940F00400E061E069032200F013
:1031C0000400009001211E20FFF77AF91E20FFF76E
:1031D0006BF92868B0F1804F11D1E06940F001002F
:1031E000E061E069032200F00100009000211C2052
:1031F000FFF766F9BDE838401C20FFF755B938BD28
:10320000000400400010024000080040022180F845
:10321000391001680A6842F001020A60012180F851
:103220003910002070470168CA6842F00102CA6084
:103230000068016841F0010101600020704702212F
:1032400080F8391001680A6A41F211131A4207D155
:103250000A6A9B101A4203D10A6822F001020A602E
:10326000012180F83910002070470168CA6822F0F7
:103270000102CA600068016A41F21112114207D1CD
:10328000016A9210114203D1016821F0010101602D
:103290000020704770B5044690F83800012817D018
:1032A000012584F83850022084F8390020688268AB
:1032B00022F0770222F47F4282600868502837D0DB
:1032C0000DDC202859D005DC88B3102841D151E00D
:1032D000022070BD302853D040283AD13FE060280A
:1032E0002ED070280BD0B0F5805F03D0B0F5005F12
:1032F0002FD110E02068816821F0070115E0CB682C
:10330000D1E90121206803F0C5F92168886840F0FF
:10331000770088601DE0CB68D1E90121206803F0C7
:10332000B9F92068816841F48041816011E01EE0B4
:10333000CA684968206803F0BFF95021206806E098
:10334000CA684968206803F0C8F96021206803F062
:10335000ABF984F83950002084F8380070BDCA6891
:103360004968206803F0A8F940212068EFE70021B0
:103370002068ECE710212068E9E720212068E6E7D3
:1033800030212068E3E7704770B5044600680169A2
:103390004FF00005C943890715D4C168C94389079F
:1033A00011D4E91E01610120207620688069800720
:1033B000204602D0FFF7E7FF04E000F098F820462F
:1033C00000F096F8257620680169C943490717D4AB
:1033D000C168C943490713D46FF004010161022099
:1033E00020762068806910F4407F204602D0FFF7E5
:1033F000CAFF04E000F07BF8204600F079F825765B
:1034000020680169C943090716D4C168C94309077F
:1034100012D46FF008010161042020762068C06991
:103420008007204602D0FFF7AEFF04E000F05FF80F
:10343000204600F05DF8257620680169C943C90679
:1034400017D4C168C943C90613D46FF010010161D4
:10345000082020762068C06910F4407F204602D002
:10346000FFF791FF04E000F042F8204600F040F83A
:10347000257620680169C943C90708D1C168C943D5
:10348000C90704D1891E0161204600F033F8206885
:103490000169C943090609D4C168C943090605D4AD
:1034A0006FF0800101612046FFF72AFE2068016964
:1034B000C943490609D4C168C943490605D46FF018
:1034C00040010161204600F06FF820680169C9439E
:1034D00089060BD4C168C943890607D46FF020015F
:1034E00001612046BDE87040FFF70BBE70BD70471C
:1034F0007047000070B52349884229D1224D234AE4
:103500002988080A1070224AC9B21170FDF786FE98
:10351000401C02D11F4914200870204C01201E4E6F
:103520000022218802E03254401C80B28842FAD343
:10353000FDF7BAFE0120228807E000BF35F8101021
:10354000401C06EB112380B219709042F6D370BD77
:103550000C493C318842FAD1114841F28834018843
:10356000491C8BB20F4903800A88521C92B20A8010
:10357000A34201D1A6230380A242E8D140F2F96020
:10358000088070BDAC0D0020481C0020860400207F
:10359000870400208A040020A41A00209004002040
:1035A0008C0400208E040020704770B5040004D005
:1035B00094F83900002510B106E0012070BD84F8B0
:1035C0003850204600F020F8022084F839002068A6
:1035D000C16821F40051C160204603F0ADF82068B5
:1035E000016921F4904101612068416921F02A01BB
:1035F00041612068C16841F40051C160E563012068
:1036000084F83900002070BD10B50068154986B0F7
:10361000884225D11448816941F0040181618169A2
:1036200001F004010491816941F480418161806964
:103630000E4C00F4804004904FF400700090022083
:1036400001900320039069462046FEF7D1FD00213A
:103650002015CDE90001029169462046FEF7C8FD1C
:1036600006B010BD003801400010024000080140C3
:103670002DE9F047044690F8390099460D46012897
:1036800001D0222858D12DB322B394F83800012854
:1036900052D0012684F838600027E76394F8390097
:1036A00022281AD05FF0120084F83900A284E28444
:1036B0004FF48058E08C4B46401EE084A0684FF0E9
:1036C000000240454FF08001204613D103F0ECF892
:1036D00008BB04E00120BDE8F0873220E4E7288839
:1036E0002168C0F308004860206908B16D1C08E03B
:1036F000AD1C06E003F0D8F868B9216815F8010B95
:103700004860E08C0028D5D14B460022402120465D
:1037100003F0CAF808B10320DDE794F83900322835
:1037200006D084F8396000BF84F838700020D2E7F2
:10373000222084F83900F7E70220CCE770B502F0C8
:1037400049FC194C6060FDF7DBF90A2590FBF5F2A6
:1037500003230221392001F049FC6068FDF7D0F90C
:1037600090FBF5F105FB1102032302214B2001F030
:103770003DFC0EA204215F2001F008FD0C496068A9
:10378000FDF73AF8FDF7BCF990FBF5F105FB1102E6
:1037900003230221662001F029FCBDE870400221CC
:1037A00004A2782001F0F2BC0C0000202E000000E2
:1037B0000000204125000000FEE7000070B50D4C20
:1037C0000025C4F890510C48016821F47041016053
:1037D000016841F440510160C4F88C51022004F5A5
:1037E000C67403F0C5FD01206060022003F0C0FD37
:1037F000656070BD00802142000C0140114810B589
:10380000816986B041F008018161806900F008009B
:1038100004900D48416821F0E06141F00071416081
:1038200018200124CDE900040320CDE902406946B7
:103830000648FEF7DDFC0648C0F88C41C0F8904110
:1038400006B010BD0010024000000140000C014015
:103850000080214270B50D4C0025C4F890510C48F1
:10386000016821F470410160016841F44051016038
:103870000126C4F88C61022004F5C67403F078FDBB
:103880006660022003F074FD656070BD0080214217
:10389000000C01402DE9F0478146174800240168DB
:1038A00021F470410160016841F400410160134E50
:1038B000254627464FF00108C6F89071022003F014
:1038C00057FDC6F890816006040ED6F80C0108B1C9
:1038D000641CE4B2012003F04BFD6D1CEDB2082D19
:1038E000EAD3B9F1000F04D0FFF768FF2046BDE826
:1038F000F087FFF7AFFFF9E7000C0140008021429D
:103900002DE9F04106461448016821F47041016038
:10391000016841F440510160104C0027C4F89071D7
:103920003D464FF00108F009C4F88C017006060E00
:10393000022003F01DFDC4F89081022003F018FD61
:10394000C4F89071022003F013FD6D1CEDB2082D38
:10395000E9D3BDE8F0810000000C01400080214265
:1039600070B50D48016821F470410160016841F4AF
:1039700040510160094C0120C4F88C01C4F8900149
:10398000042004F5C67403F0F3FC00252560042030
:1039900003F0EEFC656070BD000C01400080214228
:1039A0000E4810B5016821F470410160016841F4CE
:1039B000405101600A4C0020C4F89001C4F88C0109
:1039C000042004F5C67403F0D3FC0120606020607D
:1039D000BDE81040042003F0CBBC0000000C014007
:1039E0000080214270B513480024016821F4704121
:1039F0000160016841F4004101600F4D0126C5F8E6
:103A00008C61304603F0B4FCC5F89061012003F0EE
:103A1000AFFC07E0641CE4B2FA2C03D9FFF7C0FF47
:103A2000012070BDD5F80C010028F3D1C5F8900134
:103A300070BD0000000C01400080214281070CD1C4
:103A40006421B0FBF1F201FB120141B94FF4C871DE
:103A5000B0FBF1F201FB120008B100207047012019
:103A600070470000F0B51B4885B0816941F0040142
:103A70008161816901F004010491816941F00801CB
:103A800081618069022600F0080004900320CDE9DE
:103A90000260114F0124002569463846CDE90045F2
:103AA000FEF7A6FB002201213846FEF788FC4FF402
:103AB000815700970396CDE90154084C694620468A
:103AC000FEF796FB012239462046FEF778FC05B04A
:103AD000F0BD00000010024000080140000C014051
:103AE0002DE9F04700252E4EDFF8B8902E4C012727
:103AF0004FF4805808B1377001E0307878B1202158
:103B00002046FEF753FC88B141462046FEF74EFCA6
:103B100060B101214846FEF749FC012806D020216A
:103B20002046FEF743FC01282BD036E00020307001
:103B3000202126462046FEF739FC60B10121484687
:103B4000FEF734FC012809D0444641463046FEF7D2
:103B50002DFC70B121E00320BDE8F0870420FBE7D5
:103B60006D1CEDB2142003F0F5FB322D01D90820B5
:103B7000F2E721463046FEF719FC0028F0D0062077
:103B8000EAE741462046FEF711FC012805D1012154
:103B90004846FEF70BFC00B937700020DCE7000058
:103BA0003800002000080140000C01400E4810B50C
:103BB000816986B041F00801816180690B4C00F099
:103BC0000800049040200090012001900220039002
:103BD00069462046FEF70CFB012240212046FEF7F5
:103BE000EEFB06B010BD000000100240000C0140CA
:103BF00001460948012908D0022908D0032901D02B
:103C0000042908D14021FEF7D6BB002200E00122A2
:103C10004021FEF7D4BB7047000C0140002004494E
:103C20003F220A54401C80B28028FAD3704700001B
:103C3000241A0020FEE700002DE9FC5F0024FDF7B8
:103C400099FDDFF8A8B001264FF003090BF5007AC3
:103C5000A006070E0BEB870041682548007891FB12
:103C6000F0F0C0F11D0000F0FF08B8F11F0F01D9FE
:103C70004FF01F08CDE900963A464D4620234146B5
:103C80001046FDF7F7FDCDE900563A46C8F13F0171
:103C900020231046FDF7EEFD1AF804005546404576
:103CA00002D90AF8048019E01F2801D91F202855DD
:103CB000CDE90096295D3A46CB1C1046FDF7DAFDAA
:103CC000CDE90096285D3A46C0F13C03C0F13F01C2
:103CD0001046FDF7CFFD285D801C2855641CA4B25A
:103CE000202CB5D3BDE8FC5FFDF746BD24180020AD
:103CF000820400202DE9F0410024FDF73BFD234F15
:103D0000DFF88C8007F5007507EB8400416898F8B0
:103D1000000091FBF0F0C0F11D00C6B21F2E00D9CB
:103D20001F260123324620212046FDF771FEC6F1F1
:103D30003F00C2B2012320212046FDF769FE285D25
:103D4000B04201D92E5518E01E2801D91E20285551
:103D5000C1B2481CC2B201232046FDF759FE285DBE
:103D60000123C0F13E01CAB2C0F13F00C1B22046FA
:103D7000FDF74EFE285D801C2855641CA4B27F2CE4
:103D8000C2D3BDE8F041FDF7F7BC000024180020C5
:103D9000820400202DE9F047FDF7ECFCDFF8688095
:103DA000DFF86890012408F5007500BF58F824106A
:103DB00099F8000091FBF0F0C0F13D00C7B23F2F31
:103DC00000D93F27C7F13F06F1B201230022204668
:103DD000FDF71EFE285DB84201D92E550CE03F28A4
:103DE00000D92E55295D0123481CC2B22046FDF79B
:103DF0000FFE285D801C2855641CA4B2802CD5D3EE
:103E0000BDE8F047FDF7B8BC24180020820400206C
:103E10002DE9F047FDF7AEFCDFF86880DFF8689029
:103E2000012408F5007500BF58F8241099F8000027
:103E300091FBF0F0C0F13D00C7B23F2F00D93F2702
:103E4000C7F13F06F1B2012300222046FDF7E0FD55
:103E5000285DB84201D93F200BE03F2800D92E55FC
:103E6000295D0123481CC2B22046FDF7D1FD285D23
:103E7000801C2855641CA4B2802CD5D3BDE8F04723
:103E8000FDF77ABC24180020820400202DE9F041BF
:103E9000FDF770FC194FDFF86880012407F5007604
:103EA00057F8241098F8000091FBF0F0C0F13D00A5
:103EB000C5B23F2D00D93F25C5F13F00C1B2012356
:103EC00000222046FDF7A4FD305DA84201D93555FA
:103ED0000BE03F2800D93555315D01230A462046C5
:103EE000FDF796FD305D401C3055641CA4B2802C5B
:103EF000D6D3BDE8F041FDF73FBC000024180020F8
:103F0000820400202DE9FC5F0024FDF733FCDFF87C
:103F100088A0DFF888B001274FF003090AF5007880
:103F20006006060E0AEB860041689BF8000091FBD4
:103F3000F0F0C0F13D00C5B23F2D00D93F25CDE9DD
:103F400000973246C5F13F0100231046FDF792FC71
:103F500018F80400A84202D908F8045014E03F28D9
:103F600002D93F2008F80400CDE9009718F80400B2
:103F70003246C0F13F0319461046FDF77BFC18F8A6
:103F80000400801C08F80400641CA4B2402CC7D3B1
:103F9000BDE8FC5FFDF7F0BB241800208204002080
:103FA0002DE9F04FC3B00024FDF7E4FB2F4B02A82E
:103FB0002025610000F8141033F8241000EB4402AF
:103FC000C1F3C7115170202900D95570641CA4B2E7
:103FD000802CEED30F228021FDF7F4FCDFF890A0B7
:103FE0000024DFF890B001274FF003090AF50078AC
:103FF000A006060E0AEB860041689BF8000091FBC4
:10400000F0F0C0F13D00C5B23F2D00D93F25CDE90C
:1040100000973246C5F13F0100231046FDF72AFC08
:1040200018F80400A84202D908F8045014E03F2808
:1040300002D93F2008F80400CDE9009718F80400E1
:104040003246C0F13F0319461046FDF713FC18F83D
:104050000400801C08F80400641CA4B2202CC7D300
:10406000FDF78AFB43B0BDE8F08F0000240E00206E
:10407000241800208204002070470907090E002838
:1040800006DA00F00F0000F1E02080F8141D704700
:1040900000F1E02080F8001470470000F8B50546F4
:1040A00000270A220521062001F0DAF85F4C4FF0C4
:1040B0000C066178C8072CD1A07880B90F46062974
:1040C0004FF00A0200D90621002000F069FF2846BF
:1040D000FDF744F9681E6178C0B203F06FF9002063
:1040E000FFF7FEFC032807D0012204286CD0062825
:1040F00010D0082876D16BE0062F02D90B220621BA
:1041000001E061780B22002000F04AFF6078801CFB
:10411000607067E06378002045499B1E0B2B61D2DD
:10412000DFE803F00660106018603A6042604A0001
:104130000A88521C0A800A8842F20F739A425AD3A4
:10414000088058E08878401C887088780C2852D9FC
:104150008A7050E0CA78521CCA700A8893074FF4DC
:10416000C87205D10B88B3FBF2F702FB17338BB192
:104170000B88B3FBF2F702FB17325AB11C222D4B0E
:104180005A70CB788F782B4A521EBA5C934232D940
:10419000C87030E01D22F2E70A79521C0A710A79D0
:1041A000182A28D3087126E04A79521C4A714A79A4
:1041B0003C2A20D948711EE08A79521C8A718A797A
:1041C0003C2A18D3887116E0227000F037F809E015
:1041D0004F220621502001F06DFA4B220621582073
:1041E00001F068FA60780C2802D90220607002E0C1
:1041F000022800D266702078012816D0A078002806
:1042000013D101236A1E00216020009601F032FBC9
:1042100009A20121682000F089FF0096607801233F
:1042200042080021702001F025FBF8BD00000020AD
:1042300022000020760400202F00000030B400216E
:10424000094B0A465FF0000003EB0014401CC0B2AB
:1042500024F811208028F7D3491CC9B20829F1D3CA
:1042600030BC00F0D7BF0000500500207CB50646EA
:1042700000240A220521062001F0C4F85A4D69786D
:10428000C8072CD1A87878B90C4606294FF00A0245
:1042900000D90621002000F083FE3046FDF75EF8CD
:1042A0006978304603F08AF80020FFF719FC0328EC
:1042B00008D0012104286CD04C4C062810D00828C6
:1042C0000DD16AE0062C02D90B22062101E06978A3
:1042D0000B22002000F064FE6878801C687071E09A
:1042E0006A780020921E0B2A6CD2DFE802F0066B7F
:1042F000106B186B3A6B426B4A002188491C218075
:10430000218842F20F72914200D320807CBDA078B8
:10431000401CA070A0780C28F8D9A1707CBDE17871
:10432000491CE17021888A074FF4C87105D12288A1
:10433000B2FBF1F301FB13228AB12288B2FBF1F345
:1043400001FB132159B11C21294A5170E278A3784D
:104350002749491E595C8A42E0D9E0707CBD1D2185
:10436000F2E72179491C217121791829F6D32071AE
:104370007CBD6179491C617161793C29F8D9607112
:104380007CBDA179491CA171A1793C29F8D3A07108
:104390007CBD2970FFF752FF14E0A1796079CDE967
:1043A00000012379E278A178208801F091FD70B1B5
:1043B00045220621502001F07DF952220621582085
:1043C00001F078F968780C2808D9022009E04F221A
:1043D0000621502001F06EF94B22EFE70228D7D2D8
:1043E0000C2068707CBD0000000000201A00002036
:1043F000760400202DE9FF4F83B093461478069A87
:10440000109B127894420CD113B101F003FB01E030
:1044100001F0DAFA069801788BF8001007B0BDE8D1
:10442000F08F83B34F4B00F10B0603F1C60403F189
:104430001605029401958C1C423503F19A0803F18C
:104440002C0903F1420703F16E0C03F1840A03F116
:10445000B00ECDF800800A2ADCD2DFE802F00507B2
:104460000B10151A21252A2D029A05E00093E3B2BC
:10447000F2B212E0019A4B46CDE90023F7E7CDE90D
:104480000097E3B2F4E71CE0CDE90075E3B2F2B2C5
:1044900003E0CDE9005CE3B2F2B203F045F9B9E71D
:1044A000CDE900CAE3B2E3E7009AE3B2CDE900A2A6
:1044B000DEE7CDF804E0DAE7029AE3B2CDE900E204
:1044C000D6E7294B0D1D03F1500603F53474019610
:1044D0000294F03603F5F07800F1140403F1A00C17
:1044E00003F1F00703F5C87E03F50C7903F5207A94
:1044F000CDF800800A2A8DD2DFE802F005090D12FE
:10450000171E22272A2E029ACDE9002300E00093ED
:10451000EBB2E2B20DE0019ACDE9002CEBB2F8E784
:10452000CDE900C7EBB2E2B203E0CDE90076EBB231
:10453000E2B2FCF727FE6DE7CDE9006EEBB2E8E7EB
:10454000009AEBB2CDE900E2E3E7CDF80490DFE7B3
:10455000CDE9009AEBB2DCE7029AEBB2CDE900A21A
:10456000D7E700003B0000204301002070B5002188
:10457000062001F0C9F9304880780526B0FBF6F135
:1045800006FB1100FCF7C8FF0621012300220846A4
:1045900001F0AEF80020FFF7A3FA284CB0B10328D1
:1045A00007D0002504280BD0062817D008280DD1E5
:1045B00036E0A068801EA06008D50E20A06005E04F
:1045C000A068801CA0600E2800DDA560207800286F
:1045D00031D0A068BDE87040FCF79ABE0220607040
:1045E000A1680F2910D2DFE801F0080F0A0F0C0FA5
:1045F0000E0F130F150F170F1900207004E0032082
:10460000FBE70420F9E72670BDE8704001F02ABA04
:104610000620F2E70720F0E70820EEE70920ECE7A4
:1046200001F020FA06482570A56045720572C57133
:1046300085714571057170BD640D0020000000207A
:104640006604002010B500218D2001F0A1FA0021A0
:10465000102001F09DFA0021BDE81040AE2001F0CD
:1046600097BA10B500218D2001F092FA0021142094
:1046700001F08EFA0021BDE81040AF2001F088BAA9
:104680002DE9F04798461746824600260C46DDF88D
:10469000209011E02146504600F0F6FF554607E015
:1046A00019F806000121761C01F072FA6D1CEDB2BA
:1046B000BD42F5D3641CE4B24445EBD3BDE8F087BA
:1046C00010B5832818D83F2916D80723A3EBD103A8
:1046D00001F00701C1F107040121A140074CDBB241
:1046E00004EB0010002A30F81320C9B201D00A43AD
:1046F00000E08A4320F8132010BD00005005002080
:104700002DE9F843584C8146584F6178584DC807F9
:104710004FF005083CD1A07830B90A22002000F003
:104720003FFC4846FCF71AFE0020FFF7D9F90328A2
:1047300005D00126042828D0062829D10AE0A0782F
:1047400010BB61780B22002000F02AFC6078801CEE
:1047500060701DE0607802281AD1A07808BBA670AE
:1047600001F080F943A20021142001F0B4F801F017
:10477000A5FDFCF7A0FF3E7085F800804048FEF7DD
:1047800045FD4048FEF742FD02E02670FFF756FD6A
:104790006078062801D9022002E0022801D2062012
:1047A00060702078012817D0A078A8B90C260123C2
:1047B000A9F1010206216020009601F05BF832A207
:1047C0000721682000F0B2FC0096607801234208BF
:1047D0000621702001F04EF8A07801283DD12878FC
:1047E00014283AD12648FEF740FDFFF727FD27A2FF
:1047F0000021202001F06FF827A20321142001F0EE
:104800006AF81020009026480423032102884B20D8
:10481000D21E01F02FF80020FFF762F904281ED104
:10482000FFF70CFDA078D0B1002641F61F49A67015
:10483000494641F2873001F0E3FE1148FEF7FFFCE4
:104840004946092001F092FE0E48FEF7F8FC85F873
:1048500000803E7003202070A670BDE8F8832878A1
:104860000528D8D1F9E700000000002092040020BC
:104870008A040020477265656479536E616B650038
:10488000AC0D0020E80D00202F00000047414D45F1
:104890004F5645520000000053434F52453A000026
:1048A0009004002010B5FCF731FF494C0122102183
:1048B0002046FDF784FDC820FDF78EFC0022102164
:1048C0002046FDF77CFDC820FDF786FC0122102163
:1048D0002046FDF774FD0021AE2001F059F90021BA
:1048E000022001F055F90021102001F051F90021BA
:1048F000402001F04DF90021812001F049F900210B
:10490000CF2001F045F90021A12001F041F900215B
:10491000C82001F03DF90021A62001F039F900215D
:10492000A82001F035F900213F2001F031F90021E4
:10493000D32001F02DF90021084601F029F90021CA
:10494000D52001F025F90021802001F021F9002176
:10495000D92001F01DF90021F12001F019F9002101
:10496000DA2001F015F90021122001F011F90021DF
:10497000DB2001F00DF90021402001F009F90021B0
:10498000202001F005F90021022001F001F90021A9
:104990008D2001F0FDF80021142001F0F9F800212C
:1049A000A42001F0F5F80021A62001F0F1F8002183
:1049B000AF2001F0EDF80021AF2001F0E9F801F09F
:1049C00051F80021BDE81040084600F05DBE00002F
:1049D000000801402DE9F8433D4C804600256178F0
:1049E0004FF00207C8074FF00C064BD1A078D8B99A
:1049F0000D4606294FF00A0200D90621002000F0DA
:104A0000CFFA4046FCF7AAFC6178404602F0D6FC9B
:104A100040213048FDF7CAFC08B1122200E0102204
:104A20000321462000F032FB0020FFF759F803284D
:104A300005D00121042822D0062823D10DE0062D1F
:104A400002D90B22062101E061780B22002000F040
:104A5000A7FA6078801C607014E062781E48921E8D
:104A6000072A0FD2DFE802F0090E040E060E080036
:104A700007700FE0032100E0042101700AE02170BB
:104A8000FFF7DCFB60780C2801D9677002E0022890
:104A900000D266702078012817D0A078002814D1A1
:104AA0000123A8F1010200216020009600F0E2FE3F
:104AB0000AA20121682000F039FB009660780123EA
:104AC00042080021702000F0D5FEBDE8F883000008
:104AD00000000020000C01402A0000202F000000F0
:104AE0002DE9FE4F0027D34D804601970297A87805
:104AF0000521B0FBF1F201FB1200FCF70DFD0022D5
:104B000001231146062000F0F3FD0A26CA4C4FF09F
:104B10000109B8F1000F7DD0B8F1010F56D0B8F1FE
:104B2000020F78D1287804F10A03B0FBF6F0A072E6
:104B30009A1F022100200097FFF75CFC287804F1FF
:104B40000B03B0FBF6F106FB1100E0729A1F022185
:104B500016200097FFF74EFC0A2203212C2000F0BC
:104B600059FF687804F10C03B0FBF6F020739A1F2C
:104B7000022139200097FFF73DFC687804F10D030E
:104B8000B0FBF6F106FB110060739A1F02214F2063
:104B90000097FFF72FFCA87804F10E03B0FBF6F0A6
:104BA000A0739A1F03216720CDF80090FFF722FC25
:104BB000A87804F10F03B0FBF6F106FB1100E073D7
:104BC0009A1F03217320CDF800904EE028789A4B6D
:104BD000B0FBF6F0A0720A339A1F02210020009762
:104BE000FFF708FC2878944BB0FBF6F106FB1100A8
:104BF000E0720B339A1F022116200097FFF7FAFB91
:104C000068788D4BB0FBF6F00C3320739A1F0221AD
:104C10002C2001E02FE02AE00097FFF7EBFB6878FB
:104C2000854BB0FBF6F106FB110060730D339A1F44
:104C3000022142200097FFF7DDFBA8787E4BB0FBF6
:104C4000F6F0A0730E339A1F022158200097FFF749
:104C5000D1FBA878784BB0FBF6F106FB1100E073AE
:104C60000F339A1F02216E200097FFF7C3FBE078F5
:104C7000002867D08FE028786F4BB0FBF6F0A07269
:104C80000A33C8469A1F03211020CDF80090FFF781
:104C9000B1FB2878684BB0FBF6F106FB1100E0721F
:104CA0000B339A1F03211C20CDF80080FFF7A2FBD5
:104CB000A07808B10A2200E00B220321282000F08E
:104CC000A9FE68785C4BB0FBF6F020730C339A1F9A
:104CD00003213420CDF80080FFF78CFB6878564B19
:104CE000B0FBF6F106FB110060730D339A1F032130
:104CF0004020CDF80080FFF77DFBA07808B10A22A4
:104D000000E00B2203214C2000F084FEA978B2467B
:104D1000B1FBFAF0484BA0730E3346469A1F0321AD
:104D20005820CDF80080FFF765FBA978424BB1FB16
:104D3000FAF20AFB1210E0730F339A1F032164206A
:104D4000009692E7A07800284ED00020A07001F0D5
:104D500085F93A4D2860FBF700FF02460B4638A163
:104D600001A801F065FE01AA0521002000F0B3FDB5
:104D70000197029701F02EF96860FBF7EEFE0246FC
:104D80000B4631A101A801F053FE01AA05213220F2
:104D900000F0A1FDE770E078401CC0B2E07064282C
:104DA00000D9E7702BA20621002000F094FD2BA271
:104DB00006212E2000F08FFD2AA20621602000F09F
:104DC0008AFD0020FEF78CFE284C294903280DD0CF
:104DD00004281ED006280FD0082803D140212548DA
:104DE000FDF7E9FABDE8FE8F0120AFE72078002843
:104DF000F8D181F8009009E020780028F2D10879F4
:104E0000401CC0B20871032800D30F7100F02AFEC5
:104E1000E8E7487938B10020487130B1FFF712FC5B
:104E200084F80090DEE70120F6E7FFF71AFC277010
:104E3000D8E70000640D0020660400200C0000206C
:104E4000252E316625430000252E31662525202D8F
:104E50003E3E00004D656E7500000000486F6D65B8
:104E60000000000045786974000000001800002070
:104E700000000020000C01402DE9F843424C804620
:104E80004FF002056178C80756D1A07850B90A22C0
:104E9000002000F085F84046FCF760FA6178404653
:104EA00002F08CFA0020FEF71BFE032806D0002635
:104EB0000127042832D006283ED108E061780B2271
:104EC000002000F06DF86078801C607034E061783C
:104ED000022905D02D48042911D006292CD115E02E
:104EE00000F0C0FD4FF4807229492A48FCF79CFF6E
:104EF0002948FEF78BF9FFF7A1F9A7701CE081782C
:104F000011B10021817020E00121FBE7C178491C2B
:104F1000C9B2C170072918D9C67016E0A07840B18F
:104F20001C48FDF707F81C48FEF789F92570A670A4
:104F300000E02770FFF782F96078062801D96570D4
:104F400003E0022801D2062060702078012818D0E2
:104F5000A078002815D10C250123A8F10102062113
:104F60006020009500F086FC0CA20721682000F06C
:104F7000DDF800956078012342080621702000F0DA
:104F800079FCBDE8F8830000000000201400002038
:104F9000240E0020DC040020700D00202F000000F3
:104FA0002DE9F0410F4680460025540100F06CFBCE
:104FB0000D4E0121305D00F0EBFD6D1CEDB2641C67
:104FC000102DF6D37F1CF9B2404600F05DFB0025A2
:104FD000305D012100F0DCFD6D1CEDB2641C102D74
:104FE000F6D3BDE8F0810000247800082DE9F047F1
:104FF00098460E4681460027940100F045FB224D5D
:105000000121285D00F0C4FD4046641C02F0A2F9B5
:105010007F1CFFB2102FF3D3701CC1B2484600F0C2
:1050200033FB0027285D012100F0B2FD4046641CDF
:1050300002F090F97F1CFFB2102FF3D3B01CC1B265
:10504000484600F021FB0027285D012100F0A0FD6B
:105050004046641C02F07EF97F1CFFB2102FF3D390
:10506000F61CF1B2484600F00FFB0026285D012136
:1050700000F08EFD4046641C02F06CF9761CF6B21E
:10508000102EF3D3BDE8F087247A00082DE9F04113
:105090000E4680460027940100F0F6FA224D0121C9
:1050A000285D00F075FD7F1CFFB2641C202FF6D335
:1050B000322002F04FF9701CC1B2404600F0E4FA11
:1050C0000027285D012100F063FD7F1CFFB2641CF6
:1050D000202FF6D3322002F03DF9B01CC1B2404679
:1050E00000F0D2FA0027285D012100F051FD7F1C5D
:1050F000FFB2641C202FF6D3322002F02BF9F61CED
:10510000F1B2404600F0C0FA0026285D012100F00F
:105110003FFD761CF6B2641C202EF6D3BDE8F041AC
:10512000322002F017B90000247D00082DE9F04775
:1051300090468A4605460026DFF84C901DE0203850
:10514000C7B27E2D04D90AF10100002500F0FF0A44
:105150005146284600F098FA07EB4700002409EB77
:1051600040070121385D00F013FD641CE4B2062CF9
:10517000F7D3AD1D761CEDB2F6B218F80600002884
:10518000DDD1BDE8F0870000A48200082DE9F047DA
:1051900092468946804600251D4E32E02038C7B22F
:1051A000B8F1780F05D909F101004FF0000800F0BF
:1051B000FF094946404600F067FA002404EB071057
:1051C0000121305C00F0E4FC641CE4B2082CF5D34F
:1051D00009F10100C1B2404600F056FA5FF0000448
:1051E00004EB071030440121007A00F0D1FC641C6C
:1051F000E4B2082CF4D308F108006D1C00F0FF089D
:10520000EDB21AF805000028C8D1BDE8F08700000B
:10521000CC84000870B5114E002400BF04F1B0002A
:10522000C0B2002100F0B4FC0021084600F0B0FC40
:105230000021102000F0ACFC5FF0000506EB05102B
:10524000012110F8140000F0A3FC6D1CEDB2802DBC
:10525000F4D3641CE4B2082CE0D370BD50050020E8
:105260002DE9F84F654D8B461446298807464FF4C3
:105270007A79B1FBF9F24FF00C0804FB07F0C0B2E9
:1052800001235946CDF8008000F0F4FA29884FF048
:10529000640AB1FBF9F209FB1211B1FBFAF2601CCE
:1052A0007843C0B201235946CDF8008000F0E2FAFD
:1052B0002A880A26B2FBF9F109FB1121B1FBFAF2A7
:1052C0000AFB1210B0FBF6F2A01C7843C0B2012317
:1052D0005946CDF8008000F0CDFA29880123B1FBB2
:1052E000F9F209FB1211B1FBFAF20AFB1210B0FB42
:1052F000F6F106FB1102E01C7843C0B25946CDF826
:10530000008000F0B7FAA8780123B0FBF6F2601D28
:105310007843C0B25946CDF8008000F0ABFAA878C7
:105320000123B0FBF6F106FB1102A01D7843C0B2C9
:105330005946CDF8008000F09DFAE8780123B0FBD3
:10534000F6F204F108007843C0B25946CDF8008067
:1053500000F090FAE8780934B0FBF6F106FB110290
:105360007C43E0B201235946CDF8008000F082FA78
:105370002879234CB0FBF6F0A072012704F10A0350
:105380009A1F032134200097FFF734F8287904F19D
:105390000B03B0FBF6F106FB1100E0729A1F03212C
:1053A00040200097FFF726F80A2203214C2000F046
:1053B00031FB687904F10C03B0FBF6F020739A1FFF
:1053C000032158200097FFF715F8687904F10D03C1
:1053D000B0FBF6F106FB110060739A1F03216420F5
:1053E0000097FFF707F8CDF80080AA790223032180
:1053F000732000F03FFABDE8F88F00002200002083
:10540000660400202DE9F84F654D8B461446298827
:1054100007464FF47A79B1FBF9F24FF00C0804FB20
:1054200007F0C0B201235946CDF8008000F022FAFF
:1054300029884FF0640AB1FBF9F209FB1211B1FBA4
:10544000FAF2601C7843C0B201235946CDF80080BF
:1054500000F010FA2A880A26B2FBF9F109FB1121A3
:10546000B1FBFAF20AFB1210B0FBF6F2A01C784373
:10547000C0B201235946CDF8008000F0FBF929881D
:105480000123B1FBF9F209FB1211B1FBFAF20AFB9D
:105490001210B0FBF6F106FB1102E01C7843C0B21B
:1054A0005946CDF8008000F0E5F9A8780123B0FB5B
:1054B000F6F2601D7843C0B25946CDF8008000F086
:1054C000D9F9A8780123B0FBF6F106FB1102A01D63
:1054D0007843C0B25946CDF8008000F0CBF9E878A7
:1054E0000123B0FBF6F204F108007843C0B259463C
:1054F000CDF8008000F0BEF9E8780934B0FBF6F191
:1055000006FB11027C43E0B201235946CDF800802E
:1055100000F0B0F92879234CB0FBF6F0A072012717
:1055200004F10A039A1F032134200097FEF762FF5B
:10553000287904F10B03B0FBF6F106FB1100E072D1
:105540009A1F032140200097FEF754FF0A220321EF
:105550004C2000F05FFA687904F10C03B0FBF6F020
:1055600020739A1F032158200097FEF743FF6879A4
:1055700004F10D03B0FBF6F106FB110060739A1FF6
:10558000032164200097FEF735FFCDF80080AA794B
:1055900002230321732000F06DF9BDE8F88F0000AD
:1055A0001A00002066040020F8B52B4C06460025A2
:1055B0006178C8072BD1A07878B90D4606294FF03D
:1055C0000A0200D906210020FFF7EAFC3046FBF76B
:1055D000C5FE6178304601F0F1FE0020FEF780FA4A
:1055E000032802D0042812D10DE0062D02D90B2287
:1055F000062101E061780B220020FFF7D1FC6078E2
:10560000801C607003E001202070FEF717FE6078B8
:105610000C250C2802D90220607002E0022800D27A
:1056200065702078012816D0A078002813D10123B6
:10563000721E06216020009500F01CF907A20721C8
:105640006820FFF773FD009560780123420806216A
:10565000702000F00FF9F8BD000000202F000000BE
:1056600010B50446B031C8B2002100F091FA04F040
:105670000F00002100F08CFA102000EB1410BDE8A0
:105680001040002100F084BA10B50446B031C8B211
:10569000002100F07DFA102040EA1410002100F0F3
:1056A00077FA04F00F00BDE8104040F0010000213F
:1056B00000F06EBA70B5203A0024D5B27F2802D926
:1056C0000020891CC9B2491CC9B2FFF7DDFF074998
:1056D00005EB450001EB40050121285D00F058FA7B
:1056E000641CE4B2062CF7D370BD0000A48200084D
:1056F0002DE9FF4F564E81B09B46B18814460546B2
:105700004FF47A79B1FBF9F20C2704FB05F0C0B233
:1057100001230097029900F0ADF8B1884FF0640AB8
:10572000B1FBF9F209FB1211B1FBFAF2601C6843FC
:10573000C0B201230097029900F09CF8B1884FF0A5
:105740000A08B1FBF9F209FB1211B1FBFAF20AFBEC
:105750001211B1FBF8F2A01C6843C0B201230097FC
:10576000029900F087F8B188E01CB1FBF9F209FB5F
:105770001211B1FBFAF20AFB1211B1FBF8F208FBAD
:1057800012126843C0B201230097029900F072F828
:10579000B179601DB1FBF8F26843C0B201230097F4
:1057A000029900F067F8B179A01DB1FBF8F208FB8F
:1057B00012126843C0B201230097029900F05AF810
:1057C000F17904F10800B1FBF8F26843C0B201239B
:1057D0000097029900F04EF8F17904F10900B1FB4D
:1057E000F8F208FB12126843C0B201230097029935
:1057F00000F040F8BBF1000F27D0307A0B346C4337
:1058000008281FD2DFE800F01E04070A0D10131647
:10581000E0B210A210E0E0B20FA20DE0E0B20FA2E1
:105820000AE0E0B20EA207E0E0B20EA204E0E0B2AD
:105830000DA201E0E0B20DA2029905B0BDE8F04F63
:1058400000F049B8E0B20AA2F6E705B0BDE8F08F73
:10585000640D00204D6F6E0054756500576564003F
:1058600054687500467269005361740053756E0088
:10587000657272002DE9F0478046002608981D46A3
:1058800091468A463446470821E0281B401EC1B293
:105890000A2001F041FFB9FBF0F00A21B0FBF1F260
:1058A00001FB120026B9691E8C4201DA30B10126D3
:1058B0003030C2B207FB0480C0B203E007FB0480B3
:1058C000C0B220225146FFF7F5FE641CE4B2AC42A0
:1058D000DBD3BDE8F0872DE9F04117460E460446BC
:1058E00000250CE031462046FFF7E4FE0834E4B220
:1058F000782C02D90024B61CF6B26D1CEDB27A5D8C
:10590000002AEFD1BDE8F0812DE9F843044688462E
:1059100000202AA2FFF7DFFF294D28780A26B0FBD6
:10592000F6F20C272046012341460097FFF7A2FF1D
:1059300028780123B0FBF6F106FB11026006000E89
:1059400041460097FFF796FF68780123B0FBF6F217
:1059500004EB4400C0B241460097FFF78BFF687824
:105960000123B0FBF6F106FB1102A006000E414632
:105970000097FFF77FFFA8780123B0FBF6F204EB56
:105980008400C0B241460097FFF774FFA878012356
:10599000B0FBF6F106FB110204EB44004006000EDA
:1059A00041460097FFF766FFC4EBC4004146BDE8DF
:1059B000F843C0B203A2FFF78EBF00003C00000016
:1059C000640D00203E0000002DE9F0478846814626
:1059D0000F4902EB8200002401EB001708EB0400E2
:1059E000C1B24846FFF750FE002504EB840600BF15
:1059F00005EB86000121385C00F0CAF86D1CEDB2A1
:105A0000142DF5D3641CE4B2042CE7D3BDE8F08771
:105A1000430100202DE9F0478846814602EB420011
:105A20000F4900EBC200002401EB400708EB040023
:105A3000C1B24846FFF728FE04EB4400002500EB06
:105A4000C40670190121385C00F0A2F86D1CEDB29B
:105A50000B2DF6D3641CE4B2022CE7D3BDE8F0872B
:105A60003B00002070B5002404F1B000C0B200215A
:105A700000F08EF80021022000F08AF800211020AA
:105A800000F086F800250121002000F081F86D1C4F
:105A9000EDB2802DF7D3641CE4B2082CE4D370BDC2
:105AA00010B5114C14220221E078401CE0700A204D
:105AB000FFF7ECFAE078322802D30020E07001E032
:105AC000192802D200F00EFD01E0FDF737FE00209C
:105AD000FEF706F8042805D101202070BDE810402B
